:020000040800F2
:1000000000370020CD010008D5010008D701000805
:10001000D9010008DB010008DD0100080000000034
:10002000000000000000000000000000DF010008E8
:10003000E101000800000000E3010008E5010008FC
:10004000E7010008E7010008E7010008E7010008F0
:10005000E7010008E7010008E7010008E7010008E0
:10006000E7010008E7010008E7010008E7010008D0
:10007000E7010008E7010008E7010008E7010008C0
:10008000E7010008E7010008E7010008E7010008B0
:10009000E7010008E7010008E701000895030008F0
:1000A000E7010008E7010008E7010008E701000890
:1000B000E7010008210C00089D0C0008E70100087A
:1000C000E7010008E7010008E7010008E701000870
:1000D000E701000831120008C9120008E701000812
:1000E000E7010008E7010008E7010008E701000850
:1000F000E7010008E7010008E7010008E701000840
:10010000E7010008E7010008E7010008E70100082F
:10011000E7010008E7010008E7010008E70100081F
:10012000E7010008E7010008E7010008E70100080F
:1001300000F002F800F03AF80AA090E8000C8244BF
:100140008344AAF10107DA4501D100F02FF8AFF29C
:10015000090EBAE80F0013F0010F18BFFB1A43F0A5
:1001600001031847A8170000C8170000103A24BF61
:1001700078C878C1FAD8520724BF30C830C144BF0C
:1001800004680C607047000000230024002500264E
:10019000103A28BF78C1FBD8520728BF30C148BFEA
:1001A0000B6070471FB51FBD10B510BD00F06EF895
:1001B0001146FFF7F7FF01F005FB00F0A0F803B4CC
:1001C000FFF7F2FF03BC01F0A5FA000009488047E1
:1001D00009480047FEE7FEE7FEE7FEE7FEE7FEE729
:1001E000FEE7FEE7FEE7FEE704480549054A064B41
:1001F0007047000095090008310100080031002017
:10020000003700200033002000330020704700003A
:100210000FB4044910B503AA029800F009F810BC05
:100220005DF814FB5400002070477047704770471A
:10023000074B70B50D467B4400F011F80446284684
:1002400000F020F810B14FF0FF3070BD204670BDB7
:100250006F15000001694A1C02610878704700B5FB
:100260008FB0CDE901310021059105497944CDE9EF
:1002700003101146684600F02EF80FB000BD0000D4
:10028000E5FFFFFF007B00F080007047754600F03F
:100290003FF8AE4605006946534620F00700854604
:1002A00018B020B5FFF7A0FFBDE820404FF00006D2
:1002B0004FF000074FF000084FF0000B21F007014E
:1002C000AC46ACE8C009ACE8C009ACE8C009ACE891
:1002D000C0098D4670472DE9F04106460024D6E955
:1002E0000170F5688046304603E04146B847641C1B
:1002F0003046A8470028F8D12046BDE8F08110B567
:100300000446AFF300802046BDE81040FFF757BF1A
:1003100000487047A03000202DE9F84307460D46FD
:1003200016461C46DDF820800121404600F030FAD8
:10033000ADF8006018208DF8030003208DF802004E
:100340006946384600F0C8F845EA0400ADF80000F8
:1003500010208DF803006946384600F0BDF82146AC
:10036000384600F04DF9BDE8F883F8B506460C466E
:1003700015460121284600F00BFAADF80040102088
:100380008DF8030003208DF802006946304600F026
:10039000A3F8F8BD10B54FF4807000F01FF870B1ED
:1003A0000A2001F0DBF94FF48071074800F01FF9D3
:1003B00028B90648007880F00100044908704FF41D
:1003C000807000F005F810BD0010014050000020C2
:1003D00001490860704700001404014001460020F4
:1003E0000022074B1B6803EA0102054B14331B680C
:1003F0000B4013B10AB1012000E00020704700005B
:1004000000040140002123498279002A3AD00A469B
:10041000126803689A430B461A600A1D1268036843
:100420009A430B1D1A60027911440A6803681A4343
:100430000A60184A0832126803689A43154B083359
:100440001A601A1D126803689A43124B0C331A6023
:100450004279102A0ED11A1F126803681A430D4BF5
:1004600008331A601A1D126803681A43094B0C33CB
:100470001A600DE00749427911440A6803681A437B
:100480000A6005E0027911440A6803689A430A6029
:10049000704700000004014030B500228B071C0F9C
:1004A0000F2303FA04F20B4B8C1053F824309343C0
:1004B000084C8D1044F8253023468C1053F8243016
:1004C0008C07240F00FA04F42343024C8D1044F8E7
:1004D000253030BD080001402DE9F04102460025DD
:1004E0000026002000230024002791F803C00CF010
:1004F0000F0591F803C00CF0100CBCF1000F03D0F5
:1005000091F802C04CEA050591F800C0BCF1000F5B
:1005100031D0146800202BE04FF0010C0CFA00F3EE
:10052000B1F800C00CEA03069E4220D183004FF0D0
:100530000F0C0CFA03F7BC4305FA03FC4CEA040465
:1005400091F803C0BCF1280F06D14FF0010C0CFA52
:1005500000FCC2F814C00AE091F803C0BCF1480FD7
:1005600005D14FF0010C0CFA00FCC2F810C0401C81
:100570000828D1D31460B1F800C0BCF1FF0F34DDFE
:10058000546800202EE000F1080C4FF0010808FA32
:100590000CF3B1F800C00CEA03069E4221D183009F
:1005A0004FF00F0C0CFA03F7BC4305FA03FC4CEABE
:1005B000040491F803C0BCF1280F05D100F1080C28
:1005C00008FA0CF8C2F8148091F803C0BCF1480F87
:1005D00007D100F1080C4FF0010808FA0CF8C2F836
:1005E0001080401C0828CED35460BDE8F08102463C
:1005F000002093680B400BB1012000E00020704701
:10060000016170471FB50121112000F0C1F8482099
:100610008DF803004FF48070ADF800006946124871
:10062000FFF75AFF08210220FFF736FF4FF48070D2
:10063000029001208DF80E0000208DF80C000C2097
:100640008DF80D0002A8FFF7DDFE17208DF80400DD
:1006500001208DF8070002208DF805008DF80600B6
:1006600001A800F043F81FBD0010014008B50420A8
:1006700010234022002100901A48FFF74DFE04206D
:1006800020238022002100901648FFF745FE082015
:10069000C3010122410200901348FFF73DFE0820EC
:1006A00003020222002100900F48FFF735FE0820C8
:1006B00080234022202100900B48FFF72DFE0822C6
:1006C00051010948FFF751FE082291010648FFF742
:1006D0004CFE40F6FA2000F0EFFC41F2F95000F039
:1006E00065FD08BD00080140000C014070B5002107
:1006F00000230F22C47804B3154C246804F4E0648A
:10070000C4F5E064210AC1F10403CA40447804FA44
:1007100003F184781440214309010E4C0678A15559
:10072000047804F01F050124AC4005786D11AD007C
:1007300005F1E025C5F8004109E0047804F01F0543
:100740000124AC40044D0678761145F8264070BD72
:100750000CED00E000E400E080E100E0024901432C
:10076000024A1160704700000000FA050CED00E03D
:1007700029B1064AD2690243044BDA6104E0034A14
:10078000D2698243014BDA617047000000100240D9
:1007900029B1064A92690243044B9A6104E0034A74
:1007A00092698243014B9A61704700000010024039
:1007B00030B500210022002400232D4D6D6805F086
:1007C0000C0121B1042905D0082923D105E0294DC8
:1007D000056022E0274D05601FE0254D6D6805F49A
:1007E0007012234D6D6805F48034022505EB9242AA
:1007F0001CB9214D554305600BE01D4D6D6805F496
:1008000000351DB11C4D5543056002E0194D55439F
:10081000056002E0174D056000BF00BF144D6D6814
:1008200005F0F0010909154D6B5C0568DD40456078
:100830000F4D6D6805F4E061090A104D6B5C456869
:10084000DD4085600A4D6D6805F46051C90A0B4DA5
:100850006B5C4568DD40C560054D6D6805F4404141
:10086000890B074D6B5CC568B5FBF3F5056130BDC1
:100870000010024000127A0000093D0063000020D1
:100880007300002010B500F001F810BD0CB5002079
:10089000019000903348006840F48030314908608E
:1008A00000BF3048006800F4003000900198401C00
:1008B0000190009818B90198B0F5A06FF1D12948BE
:1008C000006800F4003010B10120009001E0002029
:1008D00000900098012843D12348006840F01000A0
:1008E000214908600846006820F0030008600846B7
:1008F000006840F0020008601A48406819494860E2
:100900000846406848600846406840F48060486097
:100910000846406820F47C1048600846406840F46F
:10092000E81048600846006840F08070086000BF2A
:100930000C48006800F000700028F9D009484068B1
:1009400020F00300074948600846406840F0020074
:10095000486000BF0348406800F00C000828F9D147
:100960000CBD00000010024000200240042808D105
:100970004FF0E021096941F004014FF0E0221161DC
:1009800007E04FF0E021096921F004014FF0E02277
:100990001161704710B51348006840F0010011491B
:1009A000086008464068104908400E4948600846FB
:1009B00000680E4908400B4908600846006820F4AA
:1009C000802008600846406820F4FE0048604FF42C
:1009D0001F008860FFF756FF4FF000600449086071
:1009E00010BD0000001002400000FFF8FFFFF6FEFF
:1009F00008ED00E010B504460E2C78D2DFE804F0D4
:100A0000071B2B3B4F63788391A5B9CDD8E6102007
:100A100080490860002211467F4800F06BF94FF4CE
:100A200080507E49086080100860012208217A48C1
:100A300000F060F9EBE04FF480607849091F08602E
:100A400000220821744800F055F94FF48070734972
:100A5000091F0860DBE04FF48070704908600001F6
:100A6000091F08608010091D0860012208216A48DA
:100A700000F040F9CBE04FF480606849091F08603E
:100A800000220821644800F035F94FF40060634902
:100A9000086001220C21604800F02CF9B7E04FF407
:100AA00000605E49091F086000220C215A4800F0CE
:100AB00021F910205749091D0860012200215648DC
:100AC00000F018F9A3E010205249086000221146F6
:100AD000514800F00FF94FF48050504908608010E1
:100AE0000860012208214C4800F004F98FE081E001
:100AF0004FF480604949091F0860002208214648D8
:100B000000F0F8F883E04FF480504449091F086072
:100B10008010091D0860012208213F4800F0EAF812
:100B200075E04FF400603D49086001220C213A480D
:100B300000F0E0F84FF480603849091F0860002297
:100B40000821354800F0D6F861E04FF400603349E1
:100B5000091F086000220C212F4800F0CBF810205C
:100B60002C49091D0860012200212B4800F0C2F821
:100B70004DE010202749086000221146264800F069
:100B8000B9F84FF4805025490860801008600122B0
:100B90000821214800F0AEF839E04FF480601F4989
:100BA000091F0860002208211B4800F0A3F82EE06E
:100BB0004FF480501949091F08608010091D086012
:100BC00001220821144800F095F820E04FF48060DD
:100BD0001249091F0860002208210F4800F08AF816
:100BE00010200C49091D0860012200210A4800F06C
:100BF00081F80CE0102007490860002211460648E1
:100C000000F078F80021044800F086F800BF00BF2B
:100C100010BD00001008014000040040140C014009
:100C200010B50121184800F083F858B30121164887
:100C300000F06FF815480068401C14490860084629
:100C4000006840F21F31884207D100200F49086038
:100C50000F480088401C0E4908800E480E4909685C
:100C600050F821000A49098888420BD10020084920
:100C7000088009480068FFF7BDFE07480068401C6F
:100C80000549086010BD000000040040400000203D
:100C900044000020040000204800002010B501217D
:100CA000114800F045F8F0B101210F4800F031F88B
:100CB0000E480068401C0D4908600846006841F66F
:100CC000B41188420FD180200949086000221146E2
:100CD000054800F00FF80648001F006880F020006B
:100CE0000349091F086010BD000800404C000020A7
:100CF000100C014030B5002301248C40A3B2048CB9
:100D00009C430484048C02FA01F5ADB22C430484A4
:100D100030BDCA430282704721B1028842F001020D
:100D2000028004E002884FF6FE731A40028070478A
:100D300030B50246002000230024158A05EA01038D
:100D4000958905EA010413B10CB1012000E00020EF
:100D500030BD1AB183890B43838102E083898B43C1
:100D60008381704770B5002400220023058C4FF664
:100D7000FE7635400584028C8388048B4FF68F7590
:100D80002C40B51E2C400D882C43751E2A400D8921
:100D90002A434D882A43144DA8420BD0134DA84234
:100DA00008D0134DA84205D0124DA84202D0124DD2
:100DB000A84213D14FF6F7752A404D892A434FF6C2
:100DC000FB752A408D882A434FF6FF652B404FF66E
:100DD000FF552B408D892B43CD892B438380048382
:100DE000CD888586028470BD002C0140003401400E
:100DF0000040014000440140004801400A460021F3
:100E0000018B4FF6F77319401143018370470000BF
:100E100070B5002400220023058C4FF6EF76354094
:100E20000584028C8388048B48F6FF752C404FF6AE
:100E3000FF452C400D884FF6FF7606EA05252C432A
:100E40004FF6DF752A400D8906EA05152A434D88BD
:100E500006EA05152A43154DA84202D0144DA842B2
:100E60001DD14FF67F752A404D894FF6FF7606EA71
:100E700005152A434FF6BF752A408D8806EA0515E9
:100E80002A434FF6FF352B404FF2FF752B408D89DB
:100E900006EA85052B43CD8906EA85052B43838029
:100EA0000483CD880587028470BD0000002C0140BA
:100EB000003401400A460021018B4FF2FF731940B4
:100EC0004FF6FF7303EA02231943018370470000C2
:100ED00070B5002400220023058C4FF6FF663540D4
:100EE0000584028C8388848B4FF68F752C404FF6D7
:100EF000FC752C400D882C434FF6FF552A400D8978
:100F00004FF6FF7606EA05252A434D8806EA0525B1
:100F10002A43154DA84202D0144DA8421DD14FF2CC
:100F2000FF752A404D894FF6FF7606EA05252A43CC
:100F30004FF6FF352A408D8806EA05252A434EF6EE
:100F4000FF752B404DF6FF752B408D8906EA051580
:100F50002B43CD8906EA05152B4383808483CD88F6
:100F60008587028470BD0000002C014000340140E0
:100F70000A460021818B4FF6F77319401143818394
:100F80007047000070B5002200230024058C4EF647
:100F9000FF7635400584038C8488828B48F6FF7584
:100FA0002A404FF6FF452A400D884FF6FF7606EAA5
:100FB00005252A434DF6FF752B400D8906EA0535B8
:100FC0002B434D8806EA05352B430B4DA84202D032
:100FD0000A4DA84208D14BF6FF752C408D894FF67B
:100FE000FF7606EA85152C4384808283CD88A0F89D
:100FF0004050038470BD0000002C014000340140CB
:10100000818670470187704781877047A0F840103C
:1010100070470000002202881D4B98420ED01D4BE5
:1010200098420BD0B0F1804F08D01B4B984205D0AE
:101030001A4B984202D01A4B984204D14FF68F7344
:101040001A404B881A43174B984207D0164B9842C8
:1010500004D04FF6FF431A40CB881A4302808B8896
:1010600083850B8803850A4B98420BD0094B984225
:1010700008D00E4B984205D00D4B984202D00D4B34
:10108000984201D10B7A03860123838270470000C6
:10109000002C0140003401400004004000080040E2
:1010A000000C0040001000400014004000400140CF
:1010B000004401400048014010B588B004460121B9
:1010C0000220FFF755FB01210846FFF761FBA0B2A4
:1010D000ADF818000720ADF814000020ADF81A0094
:1010E000ADF8160005A93048FFF794FF1D208DF8D4
:1010F000000000208DF8010001208DF802008DF81D
:1011000003006846FFF7F2FA012211462648FFF76E
:1011100020FE6020ADF804000120ADF8060000209C
:10112000ADF80C0001A92048FFF71CFE01A91E48DC
:10113000FFF76EFE01A91C48FFF7CAFE01A91A4875
:10114000FFF720FF08211848FFF758FE082116482E
:10115000FFF7B0FE08211448FFF70AFF4FF47A7139
:101160001148FFF74DFF4FF47A710F48FFF74AFF20
:101170004FF47A710C48FFF747FF4FF47A710A4831
:10118000FFF744FF002204210748FFF7B3FD0022C8
:1011900008210548FFF7AEFD00220C210248FFF7A9
:1011A000A9FD08B010BD00000004004010B588B0D3
:1011B000044601210420FFF7DBFAA0B2ADF81800C5
:1011C0000720ADF816000020ADF81A000120ADF898
:1011D000140005A91548FFF71DFF1E208DF800001B
:1011E00000208DF8010002208DF8020001208DF80A
:1011F00003006846FFF77AFA012211460B48FFF711
:10120000A8FD6020ADF804000120ADF80600002024
:10121000ADF80C0001A90548FFF7A4FD4FF47A7161
:101220000248FFF7EDFE08B010BD000000080040C6
:1012300010B540F225511F4800F04AF9002838D077
:101240001C4800F001FAC4B21B48007848B9FD2CD4
:1012500003D101201849087026E0002016490870C3
:1012600022E015480078012812D114481449097861
:10127000445413480078401C11490870084600780F
:10128000022811D10020087002200B4908700BE0E1
:1012900009480078022807D1FE2C02D10120094913
:1012A000087000200449087040F22551014800F000
:1012B000E7F810BD003801405D0000205A00002012
:1012C0005E0000205C00002010B540F2255164480B
:1012D00000F0FEF800287DD0614800F0B5F9C4B2F6
:1012E0006048007848B9FF2C03D101205D4908709F
:1012F000AFE000205B490870ABE05A480078012855
:1013000005D159480470022056490870A1E055489B
:1013100000780228ECD154480078012804D0022833
:1013200031D0032877D15FE05048007838B9504871
:1013300004804E480078401C4C49087022E04B481D
:101340000078012807D14B48047048480078401CB9
:101350004649087016E045480078022812D14548F1
:10136000007844EA002142488288801D20F812104B
:10137000801F8088401C3E498880002039490870C1
:101380003A49087064E03948007838B93A4804802E
:1013900036480078401C3549087024E0334800780E
:1013A000012807D13348047030480078401C2F4989
:1013B000087018E02D480078022814D12D480078D4
:1013C00044EA00212C488288801D20F81210801FDA
:1013D000808800E042E0401C2749888000202149A5
:1013E00008702249087033E02048007838B9234853
:1013F00004801E480078401C1C49087023E01B48EC
:101400000078012808D11B48047018480078401C57
:101410001649087017E017E014480078022812D126
:101420001448007844EA002114488288801D20F87E
:101430001210801F8088401C1049888000200949B4
:1014400008700A49087003E000200649087000BFD0
:1014500000BF40F22551024800F012F810BD000014
:10146000004400405F000020610000206000002078
:101470008C000020620000209210002098200020A4
:1014800010B50022002340F66A14A14200D100BF2B
:101490000A1201249440A3B2DC43048010BD21B1A0
:1014A000828942F40052828104E082894DF6FF7302
:1014B0001A408281704702460020B1F5007F00D1BA
:1014C00000BF13880B400BB1012000E000207047E3
:1014D00070B50246002400230025002040F66A165D
:1014E000B14200D100BFC1F3421501F01F03012634
:1014F00006FA03F3012D02D19689334006E0022D4E
:1015000002D1168A334001E0968A33400C1201263C
:1015100006FA04F41688344013B10CB1012000E03F
:10152000002070BDF0B503460024002600250020F1
:1015300040F66A17B94200D100BF1846C1F3421401
:1015400001F01F06012707FA06F5012C01D10C3026
:1015500004E0022C01D1103000E014301AB1076809
:101560002F43076002E00768AF430760F0BD00004B
:101570002DE9F04786B005460E460024A24600BF7E
:10158000A1460027B08900B100BF2F462C8A4CF637
:10159000FF700440F08804432C82AC894EF6F310AF
:1015A0000440B08831890843718908430443AC8101
:1015B000AC8A4FF6FF400440B0890443AC8201A8D6
:1015C000FFF7F6F81F48874202D1DDF810A001E0CE
:1015D000DDF80CA0A88900F4004040B10AEBCA0075
:1015E00000EB0A1031684900B0FBF1F807E00AEBA4
:1015F000CA0000EB0A1031688900B0FBF1F86420E2
:10160000B8FBF0F004012009642101FB1089A889CE
:1016100000F4004040B1322000EBC900B0FBF1F013
:1016200000F00700044308E0322000EB09106421B9
:10163000B0FBF1F000F00F0004432C8106B0BDE8D0
:10164000F08700000038014001468888C0F3080098
:101650007047C1F3080282807047000010B586B061
:10166000044601214804FFF783F80420ADF8140074
:1016700003208DF8160018208DF8170005A91C48C6
:10168000FEF72AFF0820ADF8140004208DF817009B
:1016900005A91748FEF720FF26208DF8000002203C
:1016A0008DF8010003208DF8020001208DF8030061
:1016B0006846FFF71BF801940020ADF80800ADF86C
:1016C0000A00ADF80C00ADF810000C20ADF80E00CB
:1016D00001A90848FFF74CFF012240F225510548B7
:1016E000FFF720FF01210348FFF7D9FE06B010BD28
:1016F000000801400044004005480078012804D15A
:10170000002003490870012070470020FCE700001A
:101710005C00002000BF704710B56FF00400FFF7B9
:1017200025F90A4800680A49B0FBF1F00949087038
:101730000846007800EB4001C1EBC0104FF6FF7186
:1017400001EAC0000449088010BD000078000020B4
:1017500000127A0000000020020000200146114A19
:1017600012884A434FF0E0235A6100229A611A46D8
:10177000126942F001021A6100BF4FF0E0221069C5
:1017800000F001021AB100F48032002AF5D04FF0C7
:10179000E022126922F001024FF0E0231A610022D8
:1017A0009A6170470200002000BF054A128802F0CB
:1017B0004002002AF9D0C2B2014B1B1D1A807047AB
:1017C00000380140FFF7A8FF4FF4A060FEF7C6FF06
:1017D000FEF74CFFFEF716FF4FF4E13000F046F83D
:1017E0004FF4E130FFF73AFF40F2DC50FFF7B6FF6D
:1017F00016A0FEF70DFD27E0FFF77EFF20B3174888
:101800000078052806D101211548FFF785FA102038
:101810001449086011480078032803D100211048BA
:10182000FFF77AFA00240DE00C48015D0E48FFF73F
:1018300010FF00BF40210C48FFF73DFE0128F9D101
:10184000601C84B2022CEFDBD6E70000B3F5CABC03
:10185000BBAFB3C9B9A60D0A000000005A000020B2
:1018600000040040140801400038014010B586B063
:101870000446012144F20400FEF78AFF4FF4007091
:10188000ADF8140003208DF8160018208DF817000D
:1018900005A91C48FEF720FE4FF48060ADF8140047
:1018A00004208DF8170005A91648FEF715FE25201F
:1018B0008DF8000003208DF801008DF80200012052
:1018C0008DF803006846FEF711FF01940020ADF883
:1018D0000800ADF80A00ADF80C00ADF810000C20BF
:1018E000ADF80E0001A90848FFF742FE012240F2C0
:1018F00025510548FFF716FE01210348FFF7CFFDEC
:1019000006B010BD00080140003801402C19000845
:10191000000000208C0000006C010008B8190008CD
:101920008C000020743600008801000800000000D0
:10193000080000000A000000140000000A00000077
:101940000C000000100000000A000000140000005D
:101950000A00000006000000080000000A00000065
:10196000140000000A0000000A000000000000004F
:101970000000000000000000000000000100000066
:101980000000000000000000000000000000000057
:101990000000000102030401020304060708090213
:1019A0000406080000A24A04000000000000000035
:0819B000010203040607080907
:0400000508000131BD
:00000001FF
