:020000040800F2
:1000000080060020CD010008D5010008D7010008B6
:10001000D9010008DB010008DD0100080000000034
:10002000000000000000000000000000DF010008E8
:10003000E101000800000000E3010008E5010008FC
:10004000E7010008E7010008E7010008E7010008F0
:10005000E7010008E7010008E7010008E7010008E0
:10006000E7010008E7010008E7010008E7010008D0
:10007000E7010008E7010008E7010008E7010008C0
:10008000E7010008E7010008E7010008E7010008B0
:10009000E7010008E7010008E7010008D9020008AD
:1000A000E7010008E7010008E7010008E701000890
:1000B00081080008E7010008E7010008E7010008DF
:1000C000E7010008E7010008E7010008E701000870
:1000D000E7010008E7010008E7010008E701000860
:1000E000E7010008E7010008E7010008E701000850
:1000F000E7010008E7010008E7010008E701000840
:10010000E7010008E7010008E7010008E70100082F
:10011000E7010008E7010008E7010008E70100081F
:10012000E7010008E7010008E7010008E70100080F
:1001300000F002F800F03AF80AA090E8000C8244BF
:100140008344AAF10107DA4501D100F02FF8AFF29C
:10015000090EBAE80F0013F0010F18BFFB1A43F0A5
:1001600001031847800C0000A00C0000103A24BFC7
:1001700078C878C1FAD8520724BF30C830C144BF0C
:1001800004680C607047000000230024002500264E
:10019000103A28BF78C1FBD8520728BF30C148BFEA
:1001A0000B6070471FB51FBD10B510BD00F031F8D2
:1001B0001146FFF7F7FF00F0F3FD00F04FF803B42E
:1001C000FFF7F2FF03BC00F057F800000948804732
:1001D00009480047FEE7FEE7FEE7FEE7FEE7FEE729
:1001E000FEE7FEE7FEE7FEE704480549054A064B41
:1001F000704700002108000831010008800000203D
:100200008006002080020020800200207047704796
:100210007047754600F02CF8AE4605006946534617
:1002200020F00700854618B020B5FFF7DDFFBDE8D8
:1002300020404FF000064FF000074FF000084FF04D
:10024000000B21F00701AC46ACE8C009ACE8C009DE
:10025000ACE8C009ACE8C0098D46704710B504464B
:10026000AFF300802046BDE81040FFF7A8BF0000B4
:10027000004870472000002001491820ABBEFEE76F
:100280002600020070472DE9F84307460D46164642
:100290001C46DDF820800121404600F029FAADF827
:1002A000006018208DF8030003208DF802006946D5
:1002B000384600F0B3F845EA0400ADF8000010201D
:1002C0008DF803006946384600F0A8F82146384604
:1002D00000F038F9BDE8F88310B54FF4807000F0F5
:1002E0001FF870B10A2000F035FD4FF48071074807
:1002F00000F01FF928B90648007880F00100044991
:1003000008704FF4807000F005F810BD0010014037
:1003100008000020014908607047000014040140F3
:10032000014600200022074B1B6803EA0102054B2F
:1003300014331B680B4013B10AB1012000E0002008
:100340007047000000040140002123498279002AFF
:100350003AD00A46126803689A430B461A600A1D8F
:10036000126803689A430B1D1A60027911440A68E7
:1003700003681A430A60184A0832126803689A43ED
:10038000154B08331A601A1D126803689A43124B02
:100390000C331A604279102A0ED11A1F12680368B2
:1003A0001A430D4B08331A601A1D126803681A436A
:1003B000094B0C331A600DE00749427911440A6871
:1003C00003681A430A6005E0027911440A68036869
:1003D0009A430A60704700000004014030B50022D3
:1003E0008B071C0F0F2303FA04F20B4B8C1053F8EE
:1003F00024309343084C8D1044F8253023468C104C
:1004000053F824308C07240F00FA04F42343024CE1
:100410008D1044F8253030BD080001402DE9F04131
:10042000024600250026002000230024002791F822
:1004300003C00CF00F0591F803C00CF0100CBCF1D8
:10044000000F03D091F802C04CEA050591F800C0F6
:10045000BCF1000F31D0146800202BE04FF0010CEC
:100460000CFA00F3B1F800C00CEA03069E4220D15A
:1004700083004FF00F0C0CFA03F7BC4305FA03FCA2
:100480004CEA040491F803C0BCF1280F06D14FF0E8
:10049000010C0CFA00FCC2F814C00AE091F803C089
:1004A000BCF1480F05D14FF0010C0CFA00FCC2F86A
:1004B00010C0401C0828D1D31460B1F800C0BCF1B2
:1004C000FF0F34DD546800202EE000F1080C4FF0DF
:1004D000010808FA0CF3B1F800C00CEA03069E42CA
:1004E00021D183004FF00F0C0CFA03F7BC4305FA3F
:1004F00003FC4CEA040491F803C0BCF1280F05D1B9
:1005000000F1080C08FA0CF8C2F8148091F803C046
:10051000BCF1480F07D100F1080C4FF0010808FAB0
:100520000CF8C2F81080401C0828CED35460BDE8F7
:10053000F0810246002093680B400BB1012000E0DF
:1005400000207047016170471FB50121112000F0A4
:10055000CFF848208DF803004FF48070ADF800000C
:1005600069461248FFF75AFF08210220FFF736FFBD
:100570004FF48070029001208DF80E0000208DF85D
:100580000C000C208DF80D0002A8FFF7DDFE1720EF
:100590008DF8040001208DF8070002208DF8050079
:1005A0008DF8060001A800F051F81FBD00100140B1
:1005B00008B5042010234022002100901848FFF7BE
:1005C00062FE042020238022C10100901448FFF71E
:1005D0005AFE0820C3010122410200901148FFF792
:1005E00052FE082020238022810100900D48FFF751
:1005F0004AFE082083024022410100900948FFF78B
:1006000042FE042008230246002100900448FFF720
:100610003AFE40F6FA221146104600F0DDFA08BD17
:1006200000080140000C014008B51C208DF80000B6
:1006300000208DF8010003208DF8020001208DF8C4
:100640000300684600F002F808BD000070B5002104
:1006500000230F22C47804B3154C246804F4E0642A
:10066000C4F5E064210AC1F10403CA40447804FAE5
:1006700003F184781440214309010E4C0678A155FA
:10068000047804F01F050124AC4005786D11AD001D
:1006900005F1E025C5F8004109E0047804F01F05E4
:1006A0000124AC40044D0678761145F8264070BD13
:1006B0000CED00E000E400E080E100E002490143CD
:1006C000024A1160704700000000FA050CED00E0DE
:1006D00029B1064AD2690243044BDA6104E0034AB5
:1006E000D2698243014BDA6170470000001002407A
:1006F00029B1064A92690243044B9A6104E0034A15
:1007000092698243014B9A617047000000100240D9
:1007100010B500F001F810BD0CB50020019000905C
:100720003348006840F480303149086000BF3048E9
:10073000006800F4003000900198401C019000987F
:1007400018B90198B0F5A06FF1D12948006800F4FC
:10075000003010B10120009001E0002000900098CE
:10076000012843D12348006840F010002149086067
:100770000846006820F0030008600846006840F062
:10078000020008601A4840681949486008464068F5
:1007900048600846406840F4806048600846406809
:1007A00020F47C1048600846406840F4E810486037
:1007B0000846006840F08070086000BF0C48006880
:1007C00000F000700028F9D00948406820F00300CC
:1007D000074948600846406840F00200486000BF92
:1007E0000348406800F00C000828F9D10CBD000057
:1007F0000010024000200240042808D14FF0E02100
:10080000096941F004014FF0E022116107E04FF067
:10081000E021096921F004014FF0E02211617047E5
:1008200010B51348006840F00100114908600846FF
:100830004068104908400E494860084600680E4963
:1008400008400B4908600846006820F480200860D2
:100850000846406820F4FE0048604FF41F0088609E
:10086000FFF756FF4FF000600449086010BD00001C
:10087000001002400000FFF8FFFFF6FE08ED00E068
:1008800010B50121880700F02EF8C0B101218807BA
:1008900000F01AF80A480068401C09490860084638
:1008A000006840F21F31884209D1002004490860E5
:1008B0000820044908600021C00600F008F810BDB7
:1008C0000400002010080140CA430282704721B191
:1008D000028842F00102028004E002884FF6FE73B3
:1008E0001A400280704730B50246002000230024E1
:1008F000158A05EA0103958905EA010413B10CB1D3
:10090000012000E0002030BD70B50024002200234B
:10091000058C4FF6FE7635400584028C8388048B67
:100920004FF68F752C40B51E2C400D882C43751E3C
:100930002A400D892A434D882A43144DA8420BD0E2
:10094000134DA84208D0134DA84205D0124DA8421D
:1009500002D0124DA84213D14FF6F7752A404D89A7
:100960002A434FF6FB752A408D882A434FF6FF65D0
:100970002B404FF6FF552B408D892B43CD892B43C0
:1009800083800483CD888586028470BD002C01405D
:100990000034014000400140004401400048014053
:1009A0000A460021018B4FF6F7731940114301836A
:1009B0007047000070B5002400220023058C4FF61C
:1009C000EF7635400584028C8388048B48F6FF75EA
:1009D0002C404FF6FF452C400D884FF6FF7606EA77
:1009E00005252C434FF6DF752A400D8906EA0515CB
:1009F0002A434D8806EA05152A43154DA84202D020
:100A0000144DA8421DD14FF67F752A404D894FF6EF
:100A1000FF7606EA05152A434FF6BF752A408D88F2
:100A200006EA05152A434FF6FF352B404FF2FF75B6
:100A30002B408D8906EA85052B43CD8906EA85057D
:100A40002B4383800483CD880587028470BD00001A
:100A5000002C0140003401400A460021018B4FF276
:100A6000FF7319404FF6FF7303EA02231943018312
:100A70007047000070B5002400220023058C4FF65B
:100A8000FF6635400584028C8388848B4FF68F7512
:100A90002C404FF6FC752C400D882C434FF6FF552B
:100AA0002A400D894FF6FF7606EA05252A434D8830
:100AB00006EA05252A43154DA84202D0144DA84246
:100AC0001DD14FF2FF752A404D894FF6FF7606EA99
:100AD00005252A434FF6FF352A408D8806EA05256D
:100AE0002A434EF6FF752B404DF6FF752B408D893E
:100AF00006EA05152B43CD8906EA05152B438380AD
:100B00008483CD888587028470BD0000002C01405D
:100B1000003401400A460021818B4FF6F7731940DB
:100B200011438183704781867047018770478187B1
:100B300070470000002202881D4B98420ED01D4BCA
:100B400098420BD0B0F1804F08D01B4B984205D093
:100B50001A4B984202D01A4B984204D14FF68F7329
:100B60001A404B881A43174B984207D0164B9842AD
:100B700004D04FF6FF431A40CB881A4302808B887B
:100B800083850B8803850A4B98420BD0094B98420A
:100B900008D00E4B984205D00D4B984202D00D4B19
:100BA000984201D10B7A03860123838270470000AB
:100BB000002C0140003401400004004000080040C7
:100BC000000C0040001000400014004000400140B4
:100BD000004401400048014070B588B006460C460C
:100BE0001546FFF721FD01210320FFF771FD0121CB
:100BF0000846FFF77DFD01210420FFF769FDB0B233
:100C0000ADF818000720ADF814000020ADF81A0068
:100C1000ADF8160005A93C48FFF78CFFA0B2ADF86F
:100C2000180005A93948FFF785FFA8B2ADF81800EC
:100C300005A94FF08040FFF77DFF6020ADF804006C
:100C40000120ADF806000020ADF80C0001A92E48E7
:100C5000FFF75AFE01A92C48FFF7ACFE01A92A486C
:100C6000FFF708FF01A92948FFF74EFE01A9274811
:100C7000FFF7A0FE01A94FF08040FFF7FBFE08211F
:100C80002148FFF78DFE08211F48FFF7E5FE0821E8
:100C90001D48FFF73FFF08211C48FFF781FE082190
:100CA0001A48FFF7D9FE0821C806FFF733FF4FF4B3
:100CB0007A711548FFF737FF4FF47A711248FFF742
:100CC00034FF4FF47A711048FFF731FF4FF47A7117
:100CD0000E48FFF728FF4FF47A710C48FFF725FF05
:100CE0004FF47A71C806FFF722FF01218807FFF74A
:100CF000EEFD01210448FFF7EAFD01210348FFF75B
:100D0000E6FD08B070BD000000040040000800408F
:100D100010B56FF00400FFF76FFD0A4800680A493C
:100D2000B0FBF1F0094908700846007800EB40017B
:100D3000C1EBC0104FF6FF7101EAC0000449088002
:100D400010BD00000C00002000127A0000000020FE
:100D5000020000200146114A12884A434FF0E02366
:100D60005A6100229A611A46126942F001021A6120
:100D700000BF4FF0E022106900F001021AB100F448
:100D80008032002AF5D04FF0E022126922F00102F1
:100D90004FF0E0231A6100229A61704702000020A0
:100DA000FFF7B6FF4FF4A060FFF788FCFFF700FCE9
:100DB000FFF7CAFB40210848FFF7C4FB0AE00748D9
:100DC000007818B920200649086003E02020044973
:100DD000091D0860F3E70000000C01400800002036
:100DE00010080140040E0008000000202000000050
:100DF0006C010008240E000820000020600600009E
:100E00008801000800000000000000000000000051
:100E100000A24A04000000000000000001020304D8
:040E200006070809B0
:0400000508000131BD
:00000001FF
