:020000040800F2
:10000000A0060020CD010008D5010008D701000896
:10001000D9010008DB010008DD0100080000000034
:10002000000000000000000000000000DF010008E8
:10003000E101000800000000E3010008E5010008FC
:10004000E7010008E7010008E7010008E7010008F0
:10005000E7010008E7010008E7010008E7010008E0
:10006000E7010008E7010008E7010008E7010008D0
:10007000E7010008E7010008E7010008E7010008C0
:10008000E7010008E7010008E7010008E7010008B0
:10009000E7010008E7010008E7010008E7010008A0
:1000A000E7010008E7010008E7010008E701000890
:1000B000E7010008E7080008E7010008E701000879
:1000C000E7010008E7010008E7010008E701000870
:1000D000E7010008E7010008E7010008E701000860
:1000E000E7010008E7010008E7010008E701000850
:1000F000E7010008E7010008E7010008E701000840
:10010000E7010008E7010008E7010008E70100082F
:10011000E7010008E7010008E7010008E70100081F
:10012000E7010008E7010008E7010008E70100080F
:1001300000F002F800F03AF80AA090E8000C8244BF
:100140008344AAF10107DA4501D100F02FF8AFF29C
:10015000090EBAE80F0013F0010F18BFFB1A43F0A5
:1001600001031847280F0000480F0000103A24BF71
:1001700078C878C1FAD8520724BF30C830C144BF0C
:1001800004680C607047000000230024002500264E
:10019000103A28BF78C1FBD8520728BF30C148BFEA
:1001A0000B6070471FB51FBD10B510BD00F031F8D2
:1001B0001146FFF7F7FF00F05DFF00F04FF803B4C2
:1001C000FFF7F2FF03BC00F057F800000948804732
:1001D00009480047FEE7FEE7FEE7FEE7FEE7FEE729
:1001E000FEE7FEE7FEE7FEE704480549054A064B41
:1001F000704700007B08000831010008A0000020C3
:10020000A0060020A0020020A00200207047704736
:100210007047754600F02CF8AE4605006946534617
:1002200020F00700854618B020B5FFF7DDFFBDE8D8
:1002300020404FF000064FF000074FF000084FF04D
:10024000000B21F00701AC46ACE8C009ACE8C009DE
:10025000ACE8C009ACE8C0098D46704710B504464B
:10026000AFF300802046BDE81040FFF7A8BF0000B4
:10027000004870473C00002001491820ABBEFEE753
:100280002600020070472DE9F84307460D46164642
:100290001C46DDF820800121404600F02EFAADF822
:1002A000006018208DF8030003208DF802006946D5
:1002B000384600F0A1F845EA0400ADF8000010202F
:1002C0008DF803006946384600F096F82146384616
:1002D00000F01DF9BDE8F883F8B506460C46154652
:1002E0000121284600F009FAADF8004010208DF8F1
:1002F000030003208DF802006946304600F07CF8C8
:10030000F8BD00214FF48061C4F201018279002A16
:1003100047D00A46126803689A430B461A600A1DC2
:10032000126803689A430B1D1A60027911440A6827
:1003300003681A430A604FF48162C4F20102126832
:1003400003689A434FF48163C4F201031A601A1DD3
:10035000126803689A4340F20C43C4F201031A6026
:100360004279102A12D11A1F126803681A434FF4F7
:100370008163C4F201031A601A1D126803681A43EC
:1003800040F20C43C4F201031A6010E04FF48061A4
:10039000C4F20101427911440A6803681A430A60F1
:1003A00005E0027911440A6803689A430A607047BD
:1003B00030B500228B071C0F0F2303FA04F2082329
:1003C000C4F201038C1053F8243093430824C4F280
:1003D00001048D1044F8253023468C1053F8243046
:1003E0008C07240F00FA04F423430824C4F2010408
:1003F0008D1044F8253030BD2DE9F041024600252E
:100400000026002000230024002791F803C00CF0F0
:100410000F0591F803C00CF0100CBCF1000F03D0D5
:1004200091F802C04CEA050591F800C0BCF1000F3C
:1004300031D0146800202BE04FF0010C0CFA00F3CF
:10044000B1F800C00CEA03069E4220D183004FF0B1
:100450000F0C0CFA03F7BC4305FA03FC4CEA040446
:1004600091F803C0BCF1280F06D14FF0010C0CFA33
:1004700000FCC2F814C00AE091F803C0BCF1480FB8
:1004800005D14FF0010C0CFA00FCC2F810C0401C62
:100490000828D1D31460B1F800C0BCF1FF0F34DDDF
:1004A000546800202EE000F1080C4FF0010808FA13
:1004B0000CF3B1F800C00CEA03069E4221D1830080
:1004C0004FF00F0C0CFA03F7BC4305FA03FC4CEA9F
:1004D000040491F803C0BCF1280F05D100F1080C09
:1004E00008FA0CF8C2F8148091F803C0BCF1480F68
:1004F00007D100F1080C4FF0010808FA0CF8C2F817
:100500001080401C0828CED35460BDE8F081016102
:1005100070471FB50121112000F0EFF848208DF839
:1005200003004FF48070ADF8000069464FF480502E
:10053000C4F20100FFF760FF08210220FFF738FF37
:100540004FF48070029001208DF80E0000208DF88D
:100550000C000C208DF80D0002A8FFF7D2FE17202A
:100560008DF8040001208DF8070002208DF80500A9
:100570008DF8060001A800F062F81FBD08B5042040
:1005800010234022002100904FF40060C4F20100CB
:10059000FFF779FE042020238022002100904FF4F1
:1005A0000060C4F20100FFF76EFE0820C3010122C3
:1005B000410200904FF44060C4F20100FFF763FE77
:1005C000082003020222002100904FF44060C4F290
:1005D0000100FFF758FE082251014FF44060C4F2B9
:1005E0000100FFF779FE082291014FF44060C4F248
:1005F0000100FFF771FE102040F61401C4F2010162
:10060000086040F6FA2000F06BFC08BD08B5012236
:1006100011464FF48060C4F2000000F08EFA1D20F5
:100620008DF8000000208DF8010003208DF80200F5
:1006300001208DF80300684600F001F808BD70B590
:10064000002100230F22C47834B34EF60C54CEF2AE
:100650000004246804F4E064C4F5E064210AC1F1F4
:100660000403CA40447804FA03F184781440214317
:1006700009014FF46444CEF200040678A1550478D1
:1006800004F01F050124AC4005786D11AD0005F1A3
:10069000E025C5F800410CE0047804F01F050124B2
:1006A000AC404EF28015CEF200050678761145F882
:1006B000264070BD40F0FD7141F080614EF60C5255
:1006C000CEF200021160704759B14FF48052C4F26B
:1006D0000202D26902434FF48053C4F20203DA618A
:1006E0000AE04FF48052C4F20202D26982434FF40E
:1006F0008053C4F20203DA61704759B14FF480525B
:10070000C4F20202926902434FF48053C4F202031E
:100710009A610AE04FF48052C4F202029269824365
:100720004FF48053C4F202039A61704710B500F091
:1007300001F810BD0CB50020019000904FF48050DE
:10074000C4F20200006840F480304FF48051C4F2DB
:100750000201086000BF4FF48050C4F2020000683C
:1007600000F4003000900198401C0190009818B9E6
:100770000198B0F5A06FEED14FF48050C4F20200A2
:10078000006800F4003010B10120009001E000206A
:100790000090009801285BD14FF40050C4F2020091
:1007A000006840F010004FF40051C4F202010860EC
:1007B0000846006820F0030008600846006840F022
:1007C000020008604FF48050C4F2020040684FF409
:1007D0008051C4F2020148600846406848600846FB
:1007E000406840F4806048600846406820F47C100F
:1007F00048600846406840F4E810486008460068D1
:1008000040F08070086000BF4FF48050C4F20200D6
:10081000006800F000700028F6D04FF48050C4F259
:100820000200406820F003004FF48051C4F202013E
:1008300048600846406840F00200486000BF4FF43E
:100840008050C4F20200406800F00C000828F6D185
:100850000CBD042808D14FF0E021096941F00401E2
:100860004FF0E022116107E04FF0E021096921F02B
:1008700004014FF0E0221161704710B54FF4805031
:10088000C4F20200006840F001004FF48051C4F24D
:1008900002010860084640680021CFF6FF010840C9
:1008A0004FF48051C4F2020148600846006820F409
:1008B000102020F0807008600846006820F4802036
:1008C00008600846406820F4FE0048604FF41F00AE
:1008D0008860FFF72BFF4FF000604EF60851CEF214
:1008E0000001086010BD10B501214FF48060C4F212
:1008F000000000F011F900287DD00121880700F0E8
:10090000FCF840F20400C2F200000068401C40F213
:100910000401C2F2000108600846006840F21F317D
:10092000884210D1002040F20401C2F200010860A8
:1009300040F20800C2F200000088401C40F20801AA
:10094000C2F20001088040F21000C2F2000040F242
:100950000C01C2F20001096850F8210040F20801C0
:10096000C2F200010988884245D1002040F2080106
:10097000C2F20001088040F20C00C2F200000068E0
:10098000052877D241F2AC01C0F60001D1E800F0B1
:10099000002211464FF0804000F0A0F801220C2107
:1009A000900700F09BF810204FF40161C4F20101A0
:1009B0000860C00140F61441C4F201010860012141
:1009C0004FF48060C4F2000000F09AF879E04FF430
:1009D00000604FF44161C4F2010108600021C004CD
:1009E00000F08EF800220C214FF48060C4F2000069
:1009F00000F074F800E070E04FF4805040F61441CD
:100A0000C4F20101086080100860012208214FF43F
:100A10008060C4F2000000F061F852E0002208217A
:100A20004FF48060C4F2000000F058F84FF480707A
:100A30004FF44161C4F2010108608000086040E0A9
:100A40004FF4807040F61441C4F2010108600001C7
:100A5000091F0860012208214FF48060C4F20000E1
:100A600000F03CF84FF4806040F61441C4F20101FC
:100A7000086026E01DE04FF480604FF44161C4F24D
:100A800001010860002208214FF48060C4F20000D8
:100A900000F024F8102040F61401C4F201010860AF
:100AA000012200214FF48060C4F2000000F016F82B
:100AB00007E000214FF48060C4F2000000F020F84D
:100AC00000BF00BF40F20C00C2F200000068401CF2
:100AD00040F20C01C2F20001086010BD30B50023E5
:100AE00001248C40A3B2048C9C430484048C02FA3D
:100AF00001F5ADB22C43048430BDCA430282704775
:100B000021B1028842F00102028004E002884FF61F
:100B1000FE731A400280704730B502460020002361
:100B20000024158A05EA0103958905EA010413B139
:100B30000CB1012000E0002030BD1AB183890B43C5
:100B4000838102E083898B438381704770B50024E1
:100B500000220023058C4FF6FE7635400584028C7A
:100B60008388048B4FF68F752C40B51E2C400D8862
:100B70002C43751E2A400D892A434D882A434FF481
:100B80003055C4F20105A84217D04FF45055C4F2B5
:100B90000105A84211D04FF48045C4F20105A842D6
:100BA0000BD04FF48845C4F20105A84205D04FF49C
:100BB0009045C4F20105A84213D14FF6F7752A40BB
:100BC0004D892A434FF6FB752A408D882A434FF6FC
:100BD000FF652B404FF6FF552B408D892B43CD8968
:100BE0002B4383800483CD888586028470BD0A46AA
:100BF0000021018B4FF6F7731940114301837047B1
:100C000070B5002400220023058C4FF6EF763540A6
:100C10000584028C8388048B48F6FF752C404FF6C0
:100C2000FF452C400D884FF6FF7606EA05252C433C
:100C30004FF6DF752A400D8906EA05152A434D88CF
:100C400006EA05152A434FF43055C4F20105A842BF
:100C500005D04FF45055C4F20105A8421DD14FF6FE
:100C60007F752A404D894FF6FF7606EA05152A431F
:100C70004FF6BF752A408D8806EA05152A434FF6C0
:100C8000FF352B404FF2FF752B408D8906EA850515
:100C90002B43CD8906EA85052B4383800483CD88C9
:100CA0000587028470BD0A460021018B4FF2FF7355
:100CB00019404FF6FF7303EA02231943018370477B
:100CC00070B5002400220023058C4FF6FF663540E6
:100CD0000584028C8388848B4FF68F752C404FF6E9
:100CE000FC752C400D882C434FF6FF552A400D898A
:100CF0004FF6FF7606EA05252A434D8806EA0525C4
:100D00002A434FF43055C4F20105A84205D04FF4F0
:100D10005055C4F20105A8421DD14FF2FF752A407B
:100D20004D894FF6FF7606EA05252A434FF6FF3533
:100D30002A408D8806EA05252A434EF6FF752B408A
:100D40004DF6FF752B408D8906EA05152B43CD899D
:100D500006EA05152B4383808483CD88858702842A
:100D600070BD0A460021818B4FF6F773194011437D
:100D70008183704770B5002200230024058C4EF655
:100D8000FF7635400584038C8488828B48F6FF7596
:100D90002A404FF6FF452A400D884FF6FF7606EAB7
:100DA00005252A434DF6FF752B400D8906EA0535CA
:100DB0002B434D8806EA05352B434FF43055C4F2DA
:100DC0000105A84205D04FF45055C4F20105A842D0
:100DD00008D14BF6FF752C408D894FF6FF7606EA59
:100DE00085152C4384808283CD88A0F840500384ED
:100DF00070BD0A460021818B4FF2FF7319404FF6F8
:100E0000FF7303EA02231943818370478186704789
:100E10000187704781877047A0F840107047002213
:100E200002884FF43053C4F2010398421AD04FF4B1
:100E30005053C4F20103984214D0B0F1804F11D046
:100E40004FF48063C4F2000398420BD04FF4006368
:100E5000C4F20003984205D04FF44063C4F200038B
:100E6000984204D14FF68F731A404B881A434FF4BF
:100E70008053C4F2000398420AD04FF4A053C4F246
:100E80000003984204D04FF6FF431A40CB881A4320
:100E900002808B8883850B8803854FF43053C4F21E
:100EA0000103984217D04FF45053C4F20103984203
:100EB00011D04FF48043C4F2010398420BD04FF499
:100EC0008843C4F20103984205D04FF49043C4F222
:100ED0000103984201D10B7A038601238382704774
:100EE00010B588B00446FFF791FB01210320FFF7FE
:100EF000EBFB01210846FFF700FC01210420FFF76E
:100F0000E3FBA0B2ADF818000720ADF814000020F4
:100F1000ADF81A00ADF8160005A94FF48060C4F2D0
:100F20000000FFF77CFF6020ADF804000120ADF861
:100F300006000020ADF80C0001A94FF48060C4F257
:100F40000000FFF703FE01A94FF48060C4F2000027
:100F5000FFF756FE01A94FF48060C4F20000FFF7CE
:100F6000AFFE01A94FF48060C4F20000FFF702FF5A
:100F700008214FF48060C4F20000FFF738FE08211A
:100F80004FF48060C4F20000FFF78DFE08214FF49B
:100F90008060C4F20000FFF7E4FE08214FF4806097
:100FA000C4F20000FFF725FF4FF47A714FF4806020
:100FB000C4F20000FFF72AFF4FF47A714FF480600B
:100FC000C4F20000FFF724FF4FF47A714FF4806001
:100FD000C4F20000FFF71EFF4FF47A714FF48060F7
:100FE000C4F20000FFF718FF002204214FF48060D4
:100FF000C4F20000FFF772FD002208214FF4806068
:10100000C4F20000FFF76AFD00220C214FF480605B
:10101000C4F20000FFF762FD01214FF48060C4F2CA
:101020000000FFF76DFD08B010BD10B56FF00400B3
:10103000FFF70FFC40F22800C2F2000000684FF4F6
:101040009051C0F27A01B0FBF1F040F20001C2F21F
:10105000000108700846007800EB4001C1EBC010A9
:101060004FF6FF7101EAC00040F20201C2F2000136
:10107000088010BDFFF7D9FF4FF4A060FFF71AFBFF
:10108000FFF77CFAFFF745FA00BFFEE7B41000084F
:10109000000000203C0000006C010008F010000877
:1010A0003C0000206406000088010008001F46582C
:1010B00073000000000000000000000000000000BD
:1010C0000000000002000000010000000600000017
:1010D0000A000000060000000400000000A24A040C
:1010E00000000000000000000102030406070809D8
:0400000508000131BD
:00000001FF
